{
  "contractName": "SignupContract",
  "abi": [
    {
      "inputs": [],
      "stateMutability": "nonpayable",
      "type": "constructor"
    },
    {
      "anonymous": false,
      "inputs": [
        {
          "indexed": true,
          "internalType": "address",
          "name": "userAddress",
          "type": "address"
        },
        {
          "indexed": false,
          "internalType": "string",
          "name": "data",
          "type": "string"
        }
      ],
      "name": "StringCreated",
      "type": "event"
    },
    {
      "inputs": [],
      "name": "owner",
      "outputs": [
        {
          "internalType": "address",
          "name": "",
          "type": "address"
        }
      ],
      "stateMutability": "view",
      "type": "function",
      "constant": true
    },
    {
      "inputs": [
        {
          "internalType": "string",
          "name": "data",
          "type": "string"
        }
      ],
      "name": "createString",
      "outputs": [],
      "stateMutability": "nonpayable",
      "type": "function"
    },
    {
      "inputs": [
        {
          "internalType": "address",
          "name": "newOwner",
          "type": "address"
        }
      ],
      "name": "transferOwnership",
      "outputs": [],
      "stateMutability": "nonpayable",
      "type": "function"
    }
  ],
  "bytecode": "0x608060405234801561001057600080fd5b50336000806101000a81548173ffffffffffffffffffffffffffffffffffffffff021916908373ffffffffffffffffffffffffffffffffffffffff1602179055506105ac806100606000396000f3fe608060405234801561001057600080fd5b50600436106100415760003560e01c80638da5cb5b14610046578063d9852f4b14610064578063f2fde38b14610080575b600080fd5b61004e61009c565b60405161005b9190610223565b60405180910390f35b61007e60048036038101906100799190610398565b6100c0565b005b61009a6004803603810190610095919061040d565b610111565b005b60008054906101000a900473ffffffffffffffffffffffffffffffffffffffff1681565b3373ffffffffffffffffffffffffffffffffffffffff167f070f8025711354444e911100e5d77af521b1eda4a9d34fc5330c2f93cb3419c88260405161010691906104c2565b60405180910390a250565b60008054906101000a900473ffffffffffffffffffffffffffffffffffffffff1673ffffffffffffffffffffffffffffffffffffffff163373ffffffffffffffffffffffffffffffffffffffff161461019f576040517f08c379a000000000000000000000000000000000000000000000000000000000815260040161019690610556565b60405180910390fd5b806000806101000a81548173ffffffffffffffffffffffffffffffffffffffff021916908373ffffffffffffffffffffffffffffffffffffffff16021790555050565b600073ffffffffffffffffffffffffffffffffffffffff82169050919050565b600061020d826101e2565b9050919050565b61021d81610202565b82525050565b60006020820190506102386000830184610214565b92915050565b6000604051905090565b600080fd5b600080fd5b600080fd5b600080fd5b6000601f19601f8301169050919050565b7f4e487b7100000000000000000000000000000000000000000000000000000000600052604160045260246000fd5b6102a58261025c565b810181811067ffffffffffffffff821117156102c4576102c361026d565b5b80604052505050565b60006102d761023e565b90506102e3828261029c565b919050565b600067ffffffffffffffff8211156103035761030261026d565b5b61030c8261025c565b9050602081019050919050565b82818337600083830152505050565b600061033b610336846102e8565b6102cd565b90508281526020810184848401111561035757610356610257565b5b610362848285610319565b509392505050565b600082601f83011261037f5761037e610252565b5b813561038f848260208601610328565b91505092915050565b6000602082840312156103ae576103ad610248565b5b600082013567ffffffffffffffff8111156103cc576103cb61024d565b5b6103d88482850161036a565b91505092915050565b6103ea81610202565b81146103f557600080fd5b50565b600081359050610407816103e1565b92915050565b60006020828403121561042357610422610248565b5b6000610431848285016103f8565b91505092915050565b600081519050919050565b600082825260208201905092915050565b60005b83811015610474578082015181840152602081019050610459565b83811115610483576000848401525b50505050565b60006104948261043a565b61049e8185610445565b93506104ae818560208601610456565b6104b78161025c565b840191505092915050565b600060208201905081810360008301526104dc8184610489565b905092915050565b7f4f6e6c792074686520636f6e7472616374206f776e65722063616e207065726660008201527f6f726d207468697320616374696f6e0000000000000000000000000000000000602082015250565b6000610540602f83610445565b915061054b826104e4565b604082019050919050565b6000602082019050818103600083015261056f81610533565b905091905056fea26469706673582212207729e530e743bee942e42b4fb4c058dbf9bff1df5957429a2f70a90f77581ade64736f6c634300080c0033",
  "immutableReferences": {},
  "source": "// SPDX-License-Identifier: MIT\npragma solidity ^0.8.0;\n\ncontract SignupContract {\n    address public owner;\n    //mapping(address => string) private stringData;\n    event StringCreated(address indexed userAddress, string data);\n    constructor() {\n        owner = msg.sender;\n    }\n\n    modifier onlyOwner() {\n        require(msg.sender == owner, \"Only the contract owner can perform this action\");\n        _;\n    }\n\n    function createString(string memory data) public {\n        //stringData[msg.sender] = data;\n        emit StringCreated(msg.sender, data);\n    }\n\n    // function getString(address user) public view returns (string memory) {\n    //     if (user == msg.sender || msg.sender == owner) {\n    //         return stringData[user];\n    //     } else {\n    //         return \"Access denied\";\n    //     }\n    // }\n\n    // Function to transfer ownership of the contract\n    function transferOwnership(address newOwner) public onlyOwner {\n        owner = newOwner;\n    }\n}\n",
  "sourcePath": "C:\\Real Work\\EGCO\\Pre_Capstone\\SCQ_001\\SCQ_Project\\backend\\smartcontract\\contracts\\SignupContract.sol",
  "compiler": {
    "name": "solc",
    "version": "0.8.12+commit.f00d7308.Emscripten.clang"
  },
  "schemaVersion": "3.4.15",
  "updatedAt": "2023-09-03T15:47:40.542Z",
  "networkType": "ethereum",
  "devdoc": {
    "kind": "dev",
    "methods": {},
    "version": 1
  },
  "userdoc": {
    "kind": "user",
    "methods": {},
    "version": 1
  }
}