{
  "contractName": "SignupContract",
  "abi": [
    {
      "inputs": [],
      "stateMutability": "nonpayable",
      "type": "constructor"
    },
    {
      "anonymous": false,
      "inputs": [
        {
          "indexed": true,
          "internalType": "address",
          "name": "userAddress",
          "type": "address"
        },
        {
          "indexed": false,
          "internalType": "string",
          "name": "username",
          "type": "string"
        },
        {
          "indexed": false,
          "internalType": "string",
          "name": "password",
          "type": "string"
        },
        {
          "indexed": false,
          "internalType": "string",
          "name": "email",
          "type": "string"
        },
        {
          "indexed": false,
          "internalType": "string",
          "name": "phone",
          "type": "string"
        }
      ],
      "name": "UserCreated",
      "type": "event"
    },
    {
      "inputs": [],
      "name": "owner",
      "outputs": [
        {
          "internalType": "address",
          "name": "",
          "type": "address"
        }
      ],
      "stateMutability": "view",
      "type": "function",
      "constant": true
    },
    {
      "inputs": [
        {
          "internalType": "string",
          "name": "username",
          "type": "string"
        },
        {
          "internalType": "string",
          "name": "password",
          "type": "string"
        },
        {
          "internalType": "string",
          "name": "email",
          "type": "string"
        },
        {
          "internalType": "string",
          "name": "phone",
          "type": "string"
        }
      ],
      "name": "createUser",
      "outputs": [],
      "stateMutability": "nonpayable",
      "type": "function"
    },
    {
      "inputs": [
        {
          "internalType": "address",
          "name": "newOwner",
          "type": "address"
        }
      ],
      "name": "transferOwnership",
      "outputs": [],
      "stateMutability": "nonpayable",
      "type": "function"
    }
  ],
  "bytecode": "0x608060405234801561001057600080fd5b50336000806101000a81548173ffffffffffffffffffffffffffffffffffffffff021916908373ffffffffffffffffffffffffffffffffffffffff160217905550610682806100606000396000f3fe608060405234801561001057600080fd5b50600436106100415760003560e01c80636f7fcddb146100465780638da5cb5b14610062578063f2fde38b14610080575b600080fd5b610060600480360381019061005b9190610345565b61009c565b005b61006a6100f6565b604051610077919061045d565b60405180910390f35b61009a600480360381019061009591906104a4565b61011a565b005b3373ffffffffffffffffffffffffffffffffffffffff167f3a92f8dece62f9b29e9012bd5b5bab2adf3044a1ce972e3d36c0a0b50fb4f36c858585856040516100e89493929190610559565b60405180910390a250505050565b60008054906101000a900473ffffffffffffffffffffffffffffffffffffffff1681565b60008054906101000a900473ffffffffffffffffffffffffffffffffffffffff1673ffffffffffffffffffffffffffffffffffffffff163373ffffffffffffffffffffffffffffffffffffffff16146101a8576040517f08c379a000000000000000000000000000000000000000000000000000000000815260040161019f9061062c565b60405180910390fd5b806000806101000a81548173ffffffffffffffffffffffffffffffffffffffff021916908373ffffffffffffffffffffffffffffffffffffffff16021790555050565b6000604051905090565b600080fd5b600080fd5b600080fd5b600080fd5b6000601f19601f8301169050919050565b7f4e487b7100000000000000000000000000000000000000000000000000000000600052604160045260246000fd5b61025282610209565b810181811067ffffffffffffffff821117156102715761027061021a565b5b80604052505050565b60006102846101eb565b90506102908282610249565b919050565b600067ffffffffffffffff8211156102b0576102af61021a565b5b6102b982610209565b9050602081019050919050565b82818337600083830152505050565b60006102e86102e384610295565b61027a565b90508281526020810184848401111561030457610303610204565b5b61030f8482856102c6565b509392505050565b600082601f83011261032c5761032b6101ff565b5b813561033c8482602086016102d5565b91505092915050565b6000806000806080858703121561035f5761035e6101f5565b5b600085013567ffffffffffffffff81111561037d5761037c6101fa565b5b61038987828801610317565b945050602085013567ffffffffffffffff8111156103aa576103a96101fa565b5b6103b687828801610317565b935050604085013567ffffffffffffffff8111156103d7576103d66101fa565b5b6103e387828801610317565b925050606085013567ffffffffffffffff811115610404576104036101fa565b5b61041087828801610317565b91505092959194509250565b600073ffffffffffffffffffffffffffffffffffffffff82169050919050565b60006104478261041c565b9050919050565b6104578161043c565b82525050565b6000602082019050610472600083018461044e565b92915050565b6104818161043c565b811461048c57600080fd5b50565b60008135905061049e81610478565b92915050565b6000602082840312156104ba576104b96101f5565b5b60006104c88482850161048f565b91505092915050565b600081519050919050565b600082825260208201905092915050565b60005b8381101561050b5780820151818401526020810190506104f0565b8381111561051a576000848401525b50505050565b600061052b826104d1565b61053581856104dc565b93506105458185602086016104ed565b61054e81610209565b840191505092915050565b600060808201905081810360008301526105738187610520565b905081810360208301526105878186610520565b9050818103604083015261059b8185610520565b905081810360608301526105af8184610520565b905095945050505050565b7f4f6e6c792074686520636f6e7472616374206f776e65722063616e207065726660008201527f6f726d207468697320616374696f6e0000000000000000000000000000000000602082015250565b6000610616602f836104dc565b9150610621826105ba565b604082019050919050565b6000602082019050818103600083015261064581610609565b905091905056fea26469706673582212205671db633b7ce986d8cce7ea0f25c78fb083f1fe3bec5099ec2e9ca6e00942b664736f6c634300080c0033",
  "immutableReferences": {},
  "source": "// SPDX-License-Identifier: MIT\npragma solidity ^0.8.0;\n\ncontract SignupContract {\n    address public owner;\n    event UserCreated(address indexed userAddress, string username , string password , string email , string phone);\n    constructor() {\n        owner = msg.sender;\n    }\n\n    modifier onlyOwner() {\n        require(msg.sender == owner, \"Only the contract owner can perform this action\");\n        _;\n    }\n\n    function createUser(string memory username , string memory password , string memory email , string memory phone) public {\n        //stringData[msg.sender] = data;\n        emit UserCreated(msg.sender, username , password , email , phone);\n    }\n\n    function transferOwnership(address newOwner) public onlyOwner {\n        owner = newOwner;\n    }\n}\n",
  "sourcePath": "C:\\Real Work\\EGCO\\Pre_Capstone\\SCQ_001\\SCQ_Project\\backend\\smartcontract\\contracts\\SignupContract.sol",
  "compiler": {
    "name": "solc",
    "version": "0.8.12+commit.f00d7308.Emscripten.clang"
  },
  "schemaVersion": "3.4.15",
  "updatedAt": "2023-09-04T04:19:17.963Z",
  "networkType": "ethereum",
  "devdoc": {
    "kind": "dev",
    "methods": {},
    "version": 1
  },
  "userdoc": {
    "kind": "user",
    "methods": {},
    "version": 1
  }
}