{
  "contractName": "StringContract",
  "abi": [
    {
      "inputs": [],
      "stateMutability": "nonpayable",
      "type": "constructor"
    },
    {
      "anonymous": false,
      "inputs": [
        {
          "indexed": true,
          "internalType": "address",
          "name": "userAddress",
          "type": "address"
        },
        {
          "indexed": false,
          "internalType": "string",
          "name": "data",
          "type": "string"
        }
      ],
      "name": "StringCreated",
      "type": "event"
    },
    {
      "inputs": [],
      "name": "owner",
      "outputs": [
        {
          "internalType": "address",
          "name": "",
          "type": "address"
        }
      ],
      "stateMutability": "view",
      "type": "function",
      "constant": true
    },
    {
      "inputs": [
        {
          "internalType": "string",
          "name": "data",
          "type": "string"
        }
      ],
      "name": "createString",
      "outputs": [],
      "stateMutability": "nonpayable",
      "type": "function"
    },
    {
      "inputs": [
        {
          "internalType": "address",
          "name": "user",
          "type": "address"
        }
      ],
      "name": "getString",
      "outputs": [
        {
          "internalType": "string",
          "name": "",
          "type": "string"
        }
      ],
      "stateMutability": "view",
      "type": "function",
      "constant": true
    },
    {
      "inputs": [
        {
          "internalType": "address",
          "name": "newOwner",
          "type": "address"
        }
      ],
      "name": "transferOwnership",
      "outputs": [],
      "stateMutability": "nonpayable",
      "type": "function"
    }
  ],
  "bytecode": "0x608060405234801561001057600080fd5b50336000806101000a81548173ffffffffffffffffffffffffffffffffffffffff021916908373ffffffffffffffffffffffffffffffffffffffff1602179055506108d8806100606000396000f3fe608060405234801561001057600080fd5b506004361061004c5760003560e01c80637d434425146100515780638da5cb5b14610081578063d9852f4b1461009f578063f2fde38b146100bb575b600080fd5b61006b6004803603810190610066919061051f565b6100d7565b60405161007891906105e5565b60405180910390f35b610089610270565b6040516100969190610616565b60405180910390f35b6100b960048036038101906100b49190610766565b610294565b005b6100d560048036038101906100d0919061051f565b610339565b005b60603373ffffffffffffffffffffffffffffffffffffffff168273ffffffffffffffffffffffffffffffffffffffff16148061015e575060008054906101000a900473ffffffffffffffffffffffffffffffffffffffff1673ffffffffffffffffffffffffffffffffffffffff163373ffffffffffffffffffffffffffffffffffffffff16145b1561023257600160008373ffffffffffffffffffffffffffffffffffffffff1673ffffffffffffffffffffffffffffffffffffffff16815260200190815260200160002080546101ad906107de565b80601f01602080910402602001604051908101604052809291908181526020018280546101d9906107de565b80156102265780601f106101fb57610100808354040283529160200191610226565b820191906000526020600020905b81548152906001019060200180831161020957829003601f168201915b5050505050905061026b565b6040518060400160405280600d81526020017f4163636573732064656e6965640000000000000000000000000000000000000081525090505b919050565b60008054906101000a900473ffffffffffffffffffffffffffffffffffffffff1681565b80600160003373ffffffffffffffffffffffffffffffffffffffff1673ffffffffffffffffffffffffffffffffffffffff16815260200190815260200160002090805190602001906102e792919061040a565b503373ffffffffffffffffffffffffffffffffffffffff167f070f8025711354444e911100e5d77af521b1eda4a9d34fc5330c2f93cb3419c88260405161032e91906105e5565b60405180910390a250565b60008054906101000a900473ffffffffffffffffffffffffffffffffffffffff1673ffffffffffffffffffffffffffffffffffffffff163373ffffffffffffffffffffffffffffffffffffffff16146103c7576040517f08c379a00000000000000000000000000000000000000000000000000000000081526004016103be90610882565b60405180910390fd5b806000806101000a81548173ffffffffffffffffffffffffffffffffffffffff021916908373ffffffffffffffffffffffffffffffffffffffff16021790555050565b828054610416906107de565b90600052602060002090601f016020900481019282610438576000855561047f565b82601f1061045157805160ff191683800117855561047f565b8280016001018555821561047f579182015b8281111561047e578251825591602001919060010190610463565b5b50905061048c9190610490565b5090565b5b808211156104a9576000816000905550600101610491565b5090565b6000604051905090565b600080fd5b600080fd5b600073ffffffffffffffffffffffffffffffffffffffff82169050919050565b60006104ec826104c1565b9050919050565b6104fc816104e1565b811461050757600080fd5b50565b600081359050610519816104f3565b92915050565b600060208284031215610535576105346104b7565b5b60006105438482850161050a565b91505092915050565b600081519050919050565b600082825260208201905092915050565b60005b8381101561058657808201518184015260208101905061056b565b83811115610595576000848401525b50505050565b6000601f19601f8301169050919050565b60006105b78261054c565b6105c18185610557565b93506105d1818560208601610568565b6105da8161059b565b840191505092915050565b600060208201905081810360008301526105ff81846105ac565b905092915050565b610610816104e1565b82525050565b600060208201905061062b6000830184610607565b92915050565b600080fd5b600080fd5b7f4e487b7100000000000000000000000000000000000000000000000000000000600052604160045260246000fd5b6106738261059b565b810181811067ffffffffffffffff821117156106925761069161063b565b5b80604052505050565b60006106a56104ad565b90506106b1828261066a565b919050565b600067ffffffffffffffff8211156106d1576106d061063b565b5b6106da8261059b565b9050602081019050919050565b82818337600083830152505050565b6000610709610704846106b6565b61069b565b90508281526020810184848401111561072557610724610636565b5b6107308482856106e7565b509392505050565b600082601f83011261074d5761074c610631565b5b813561075d8482602086016106f6565b91505092915050565b60006020828403121561077c5761077b6104b7565b5b600082013567ffffffffffffffff81111561079a576107996104bc565b5b6107a684828501610738565b91505092915050565b7f4e487b7100000000000000000000000000000000000000000000000000000000600052602260045260246000fd5b600060028204905060018216806107f657607f821691505b6020821081141561080a576108096107af565b5b50919050565b7f4f6e6c792074686520636f6e7472616374206f776e65722063616e207065726660008201527f6f726d207468697320616374696f6e0000000000000000000000000000000000602082015250565b600061086c602f83610557565b915061087782610810565b604082019050919050565b6000602082019050818103600083015261089b8161085f565b905091905056fea2646970667358221220dddc5974bdf571fd57e1b2c18a9f140228a6cc8316c925538ecddbd075f16f6764736f6c634300080c0033",
  "immutableReferences": {},
  "source": "// SPDX-License-Identifier: MIT\npragma solidity ^0.8.0;\n\ncontract StringContract {\n    address public owner;\n    mapping(address => string) private stringData;\n    event StringCreated(address indexed userAddress, string data);\n    constructor() {\n        owner = msg.sender;\n    }\n\n    modifier onlyOwner() {\n        require(msg.sender == owner, \"Only the contract owner can perform this action\");\n        _;\n    }\n\n    function createString(string memory data) public {\n        stringData[msg.sender] = data;\n        emit StringCreated(msg.sender, data);\n    }\n\n    function getString(address user) public view returns (string memory) {\n        if (user == msg.sender || msg.sender == owner) {\n            return stringData[user];\n        } else {\n            return \"Access denied\";\n        }\n    }\n\n    // Function to transfer ownership of the contract\n    function transferOwnership(address newOwner) public onlyOwner {\n        owner = newOwner;\n    }\n}\n",
  "sourcePath": "C:\\Real Work\\EGCO\\Pre_Capstone\\SCQ_001\\SCQ_Project\\backend\\smartcontract\\contracts\\StringContract.sol",
  "compiler": {
    "name": "solc",
    "version": "0.8.12+commit.f00d7308.Emscripten.clang"
  },
  "schemaVersion": "3.4.15",
  "updatedAt": "2023-09-04T04:19:18.183Z",
  "networkType": "ethereum",
  "devdoc": {
    "kind": "dev",
    "methods": {},
    "version": 1
  },
  "userdoc": {
    "kind": "user",
    "methods": {},
    "version": 1
  }
}